:020000040800F2
:10000000B00700208901000865050008FF0300080B
:10001000610500083902000877120008000000009E
:10002000000000000000000000000000FD090008C2
:100030003D02000800000000E7080008C90B0008A6
:10004000A3010008A3010008A3010008A301000800
:10005000A3010008A3010008A3010008A3010008F0
:10006000A3010008A3010008A3010008A3010008E0
:10007000A3010008A3010008A3010008A3010008D0
:10008000A3010008A3010008A3010008A3010008C0
:10009000A3010008A3010008A3010008A3010008B0
:1000A000A3010008A3010008A3010008A3010008A0
:1000B0002D0C0008450C0008A3010008A30100084E
:1000C000A3010008A3010008A3010008A301000880
:1000D000A3010008A3010008A3010008590F0008AC
:1000E000A3010008A3010008A301000800F002F822
:1000F00000F03AF80AA090E8000C82448344AAF188
:100100000107DA4501D100F02FF8AFF2090EBAE885
:100110000F0013F0010F18BFFB1A43F0010318473B
:10012000C41B0000E41B0000103A24BF78C878C14B
:10013000FAD8520724BF30C830C144BF04680C60ED
:10014000704700000023002400250026103A28BF35
:1001500078C1FBD8520728BF30C148BF0B60704739
:100160001FB51FBD10B510BD00F033F81146FFF7E5
:10017000F7FF01F023F900F051F803B4FFF7F2FFA5
:1001800003BC01F0D1F80000094880470948004746
:10019000FEE7FEE7FEE7FEE7FEE7FEE7FEE7FEE737
:1001A000FEE7FEE704480549054A064B7047000094
:1001B000CD0B0008ED000008B0010020B0070020C2
:1001C000B0030020B00300207047704770477047AD
:1001D0007047754600F02CF8AE4605006946534658
:1001E00020F00700854618B020B5FFF7DBFFBDE81B
:1001F00020404FF000064FF000074FF000084FF08E
:10020000000B21F00701AC46ACE8C009ACE8C0091E
:10021000ACE8C009ACE8C0098D46704710B504468B
:10022000AFF300802046BDE81040FFF7A6BF0000F6
:10023000004870474C01002000BFFEE770472DE9E1
:10024000F04102460025002600200023002400275C
:1002500091F803C00CF00F0591F803C00CF0100CDE
:10026000BCF1000F03D091F802C04CEA050591F8EB
:1002700000C0BCF1000F31D0146800202BE04FF01B
:10028000010C0CFA00F3B1F800C00CEA03069E4220
:1002900020D183004FF00F0C0CFA03F7BC4305FA92
:1002A00003FC4CEA040491F803C0BCF1280F06D10A
:1002B0004FF0010C0CFA00FCC2F814C00AE091F8EF
:1002C00003C0BCF1480F05D14FF0010C0CFA00FC43
:1002D000C2F810C0401C0828D1D31460B1F800C087
:1002E000BCF1FF0F34DD546800202EE000F1080C53
:1002F0004FF0010808FA0CF3B1F800C00CEA03064D
:100300009E4221D183004FF00F0C0CFA03F7BC433F
:1003100005FA03FC4CEA040491F803C0BCF1280F71
:1003200005D100F1080C08FA0CF8C2F8148091F815
:1003300003C0BCF1480F07D100F1080C4FF00108D1
:1003400008FA0CF8C2F81080401C0828CED354607C
:10035000BDE8F081F0B50A46002300240021002505
:1003600000F00046B6F1004F02D11D4EF16901E0E8
:100370001B4E7168C0F3034583B200F44016B6F516
:10038000401F08D121F07061154E766826F0706626
:10039000134F7E6012E000F48016B6F5801F06D180
:1003A000032606FA05F4A14341F0706106E0460D0C
:1003B000360103FA06F6B14341F0706122B1460DF1
:1003C000360103FA06F6314300F00046B6F1004F5D
:1003D00002D1034EF16101E0014E7160F0BD0000F9
:1003E000000001400246002093680B400BB1012041
:1003F00000E000207047416170470161704700BF15
:10040000FEE7000010B520210748FFF7F6FF802126
:100410000548FFF7F2FF80210348FFF7ECFF20219A
:100420000148FFF7E8FF10BD0008014010B520218A
:100430000548FFF7E2FF80210348FFF7DCFF80213A
:100440000148FFF7DAFF10BD0008014010B5202178
:100450000348FFF7D2FF20210148FFF7CCFF10BD72
:100460000008014008B50121442000F04DFA4FF486
:100470007040ADF8000048208DF80300694602483E
:10048000FFF7DDFE08BD0000000C014010B504467A
:1004900014B10120304908702F48007800283DD061
:1004A0004FF480512D48FFF79DFF88B14FF4005164
:1004B0002A48FFF797FF58B14FF480412748FFF7CC
:1004C00091FF28B14FF400412448FFF78BFF28BB70
:1004D0000A2000F04DFF00201F4908704FF48051A2
:1004E0001E48FFF77FFF08B9012010BD4FF40051EF
:1004F0001A48FFF777FF08B90220F6E74FF480416A
:100500001648FFF76FFF08B90320EEE74FF40041EC
:100510001248FFF767FFE0B90420E6E74FF4805187
:100520000E48FFF75FFF012813D141030B48FFF787
:1005300059FF01280DD181030848FFF753FF012817
:1005400007D1C1030548FFF74DFF012801D102493A
:1005500008700020C9E7000063000020000C014083
:1005600000BFFEE77047000070B5002100230F2296
:10057000C47804B3154C246804F4E064C4F5E06462
:10058000210AC1F10403CA40447804FA03F18478D3
:100590001440214309010E4C0678A155047804F05B
:1005A0001F050124AC4005786D11AD0005F1E02573
:1005B000C5F8004109E0047804F01F050124AC40AF
:1005C000044D0678761145F8264070BD0CED00E02C
:1005D00000E400E080E100E002490143024A1160CA
:1005E000704700000000FA050CED00E070B5002433
:1005F00018E004F1B000002100F069F9002108467C
:1006000000F065F90021102000F061F9002505E0F7
:100610000121002000F05BF9681CC5B2802DF7DBDA
:10062000601CC4B2082CE4DB70BD000008B50121D9
:10063000042000F069F9A020ADF8000010208DF82A
:10064000030003208DF8020069463C48FFF7F7FDE0
:10065000A0213A48FFF7D1FE4FF4487000F088FE21
:100660000021AE2000F033F90021084600F02FF9F8
:100670000021102000F02BF90021402000F027F984
:100680000021B02000F023F90021812000F01FF9A3
:100690000021FF2000F01BF90021A12000F017F934
:1006A0000021A62000F013F90021A82000F00FF986
:1006B00000213F2000F00BF90021C82000F007F9CD
:1006C0000021D32000F003F90021084600F0FFF8D4
:1006D0000021D52000F0FBF80021802000F0F7F881
:1006E0000021D82000F0F3F80021052000F0EFF8F9
:1006F0000021D92000F0EBF80021F12000F0E7F80C
:100700000021DA2000F0E3F80021122000F0DFF8E9
:100710000021DB2000F0DBF80021302000F0D7F8CA
:1007200000218D2000F0D3F80021142000F0CFF834
:100730000021AF2000F0CBF808BD00000008014008
:1007400070B504460D4605F1B000002100F0BFF879
:10075000102141EA1410002100F0B9F804F00F0054
:10076000002100F0B4F870BD2DE9F04707460E46B1
:100770009046994600250024A8F12000C5B27F2F9D
:1007800002DD0027B01CC6B2B9F1100F24D13146EA
:100790003846FFF7D5FF002408E004EB0511194A9D
:1007A000505C012100F093F8601CC4B2082CF4DB0B
:1007B000701CC1B23846FFF7C3FF002409E004EB08
:1007C000051108310F4A505C012100F080F8601CCF
:1007D000C4B2082CF3DB12E031463846FFF7B0FF15
:1007E00000240AE005EB4501074A02EB4101085DE0
:1007F000012100F06CF8601CC4B2062CF2DBBDE8ED
:10080000F0870000F2160008CA1400082DE9FF5F07
:10081000074691461E460E9D4FF0000A002435E023
:10082000301B401EC1B20A2000F044FEB9FBF0F0BC
:100830000A21B0FBF1F201FB1208BAF1000F14D14A
:10084000701EA04211DDB8F1000F0CD1AB4605EBD4
:10085000DB71491001FB0471C8B22B4620220199BB
:10086000FFF782FF10E04FF0010AAB4605EBDB71AA
:10087000491001FB0471C8B208F13001CAB22B461D
:100880000199FFF771FF00BF601CC4B2B442C7DB1F
:10089000BDE8FF9F2DE9F04104460F4615469846F6
:1008A00000260FE0AA5D434639462046FFF75CFF6D
:1008B00004F10800C4B2782C02DD0024B81CC7B2D1
:1008C000701CC6B2A85D0028ECD1BDE8F08170B5FF
:1008D00004460D461DB1E0B200F010FD02E0E0B2AA
:1008E00000F0F6FC70BD704729B1064AD269024398
:1008F000044BDA6104E0034AD2698243014BDA61B6
:10090000704700000010024029B1064A9269024374
:10091000044B9A6104E0034A92698243014B9A6155
:10092000704700000010024030B500210022002472
:1009300000232D4D6D6805F00C0121B1042905D06F
:10094000082923D105E0294D056022E0274D0560E7
:100950001FE0254D6D6805F47012234D6D6805F498
:100960008034022505EB92421CB9214D55430560A8
:100970000BE01D4D6D6805F400351DB11C4D554350
:10098000056002E0194D5543056002E0174D056012
:1009900000BF00BF144D6D6805F0F0010909154D49
:1009A0006B5C0568DD4045600F4D6D6805F4E061E6
:1009B000090A104D6B5C4568DD4085600A4D6D6825
:1009C00005F46051C90A0B4D6B5C4568DD40C5609C
:1009D000054D6D6805F44041890B074D6B5CC5689A
:1009E000B5FBF3F5056130BD0010024000127A003E
:1009F00000093D0014000020240000207047000082
:100A000000B587B001218804FFF76EFF012108209F
:100A1000FFF77AFF18208DF81B004FF48060ADF8C7
:100A2000180003208DF81A0006A92148FFF707FCDB
:100A300048208DF81B004FF40060ADF8180003202B
:100A40008DF81A0006A91A48FFF7F9FB4FF4165063
:100A500002900020ADF814000C20ADF81200002028
:100A6000ADF81000ADF80E00ADF80C0002A9114869
:100A700000F090FB012240F225510E4800F064FB8B
:100A80004FF4A060FFF7A8FD27208DF80400012097
:100A90008DF807008DF805008DF8060001A8FFF716
:100AA00063FD0121034800F019FB07B000BD000001
:100AB000000C01400048004010B500F001F810BDE6
:100AC0000CB50020019000903348006840F480305D
:100AD0003149086000BF3048006800F400300090E1
:100AE0000198401C0190009818B90198B0F5A06FCA
:100AF000F1D12948006800F4003010B101200090C5
:100B000001E0002000900098012843D123480068AC
:100B100040F01000214908600846006820F00300FA
:100B200008600846006840F0020008601A48406803
:100B3000194948600846406848600846406840F4E3
:100B4000806048600846406820F47C104860084691
:100B5000406840F4E81048600846006840F0807043
:100B6000086000BF0C48006800F000700028F9D051
:100B70000948406820F0030007494860084640687B
:100B800040F00200486000BF0348406800F00C00DD
:100B90000828F9D10CBD00000010024000200240DE
:100BA000042808D14FF0E021096941F004014FF019
:100BB000E022116107E04FF0E021096921F0040112
:100BC0004FF0E022116170477047000010B51348E4
:100BD000006840F00100114908600846406810496B
:100BE00008400E494860084600680E4908400B4915
:100BF00008600846006820F48020086008464068C5
:100C000020F4FE0048604FF41F008860FFF754FF97
:100C10004FF000600449086010BD00000010024061
:100C20000000FFF8FFFFF6FE08ED00E010B501211F
:100C3000880700F07EF818B10121880700F06AF8F3
:100C400010BD000010B50121044800F072F818B181
:100C50000121024800F05EF810BD000000040040D1
:100C600030B589B005460C4601210220FFF73CFE55
:100C700001210920FFF748FE01212348FFF76AFB05
:100C80002220ADF8200018208DF8230003208DF8D5
:100C9000220008A91D48FFF7D2FAADF81850ADF8A8
:100CA00014400020ADF81A00ADF8160005A9184848
:100CB00000F000F97020ADF804000120ADF8060046
:100CC0000220ADF80C0001A9114800F043F801A979
:100CD0000F4800F09FF808210D4800F08DF808211A
:100CE0000B4800F0D5F80121094800F016F840F251
:100CF000DC51074800F0D9F840F2DC51044800F01C
:100D0000D6F809B030BD000000081A00000C014000
:100D100000040040CA430282704721B1028842F0B9
:100D20000102028004E002884FF6FE731A4002803E
:100D3000704730B50246002000230024158A05EADA
:100D40000103958905EA010413B10CB1012000E00B
:100D5000002030BD70B5002400220023058C4FF622
:100D6000EF7635400584028C8388048B48F6FF7546
:100D70002C404FF6FF452C400D884FF6FF7606EAD3
:100D800005252C434FF6DF752A400D8906EA051527
:100D90002A434D8806EA05152A43154DA84202D07C
:100DA000144DA8421DD14FF67F752A404D894FF64C
:100DB000FF7606EA05152A434FF6BF752A408D884F
:100DC00006EA05152A434FF6FF352B404FF2FF7513
:100DD0002B408D8906EA85052B43CD8906EA8505DA
:100DE0002B4383800483CD880587028470BD000077
:100DF000002C0140003401400A460021018B4FF2D3
:100E0000FF7319404FF6FF7303EA0223194301836E
:100E10007047000070B5002200230024058C4EF6B8
:100E2000FF7635400584038C8488828B48F6FF75F5
:100E30002A404FF6FF452A400D884FF6FF7606EA16
:100E400005252A434DF6FF752B400D8906EA053529
:100E50002B434D8806EA05352B430B4DA84202D0A3
:100E60000A4DA84208D14BF6FF752C408D894FF6EC
:100E7000FF7606EA85152C4384808283CD88A0F80E
:100E80004050038470BD0000002C0140003401403C
:100E90000A460021818B4FF2FF7319404FF6FF7312
:100EA00003EA022319438183704701877047A0F842
:100EB00040107047002202881D4B98420ED01D4BF7
:100EC00098420BD0B0F1804F08D01B4B984205D010
:100ED0001A4B984202D01A4B984204D14FF68F73A6
:100EE0001A404B881A43174B984207D0164B98422A
:100EF00004D04FF6FF431A40CB881A4302808B88F8
:100F000083850B8803850A4B98420BD0094B984286
:100F100008D00E4B984205D00D4B984202D00D4B95
:100F2000984201D10B7A0386012383827047000027
:100F3000002C014000340140000400400008004043
:100F4000000C004000100040001400400040014030
:100F5000004401400048014070B540F22551564818
:100F600000F0C8F8002814D0534800F07FF9C5B24B
:100F70005248007870B92C2D0CD151480178007876
:100F8000401C4F4A10704F4820F8115001204B4927
:100F9000087090E04948007801280ED1122D0CD13C
:100FA000474801780078401C454A1070454820F8B1
:100FB00011500220414908707DE040480078022825
:100FC00027D13F4801780078401C3D4A10703D48C9
:100FD00020F8115010460078082801DA5B2D6AD1FC
:100FE00003203649087001203749087034480078DA
:100FF000401F344931F8100000B2344908803048AD
:101000000078C01E2F4931F8100000B23049088026
:1010100051E02A48007803283ED129480078401E34
:10102000284931F810005B2826D1002240F22551D2
:10103000214800F089F824480078B0B120480078B1
:10104000401F204931F81000224908601C480078F0
:10105000C01E1C4931F810001F49086000201A49C1
:1010600008701749087015490870012240F225518F
:10107000114800F069F81EE000201049087010497E
:101080000870002405E000200E4921F81400601CBF
:10109000C4B20A2CF7DB0EE00020084908700849AA
:1010A0000870002405E00020064921F81400601CA7
:1010B000C4B20A2CF7DB70BD00480040610000207C
:1010C0006000002036010020620000202E00002079
:1010D00030000020340000203800002021B1828937
:1010E00042F40052828104E082894DF6FF731A4077
:1010F0008281704770B5024600240023002500203D
:1011000040F66A16B14200D100BFC1F3421501F0AA
:101110001F03012606FA03F3012D02D196893340FD
:1011200006E0022D02D1168A334001E0968A334050
:101130000C12012606FA04F41688344013B10CB1DF
:10114000012000E0002070BDF0B503460024002619
:101150000025002040F66A17B94200D100BF1846AA
:10116000C1F3421401F01F06012707FA06F5012C0E
:1011700001D10C3004E0022C01D1103000E0143019
:101180001AB107682F43076002E00768AF430760A2
:10119000F0BD00002DE9F04786B005460E4600245C
:1011A000A24600BFA1460027B08900B100BF2F466C
:1011B0002C8A4CF6FF700440F08804432C82AC89E2
:1011C0004EF6F3100440B088318908437189084312
:1011D0000443AC81AC8A4FF6FF400440B08904431D
:1011E000AC8201A8FFF7A0FB1F48874202D1DDF8BF
:1011F00010A001E0DDF80CA0A88900F4004040B187
:101200000AEBCA0000EB0A1031684900B0FBF1F8A4
:1012100007E00AEBCA0000EB0A1031688900B0FB56
:10122000F1F86420B8FBF0F004012009642101FB0F
:101230001089A88900F4004040B1322000EBC900B9
:10124000B0FBF1F000F00700044308E0322000EBAF
:1012500009106421B0FBF1F000F00F0004432C8171
:1012600006B0BDE8F08700000038014001468888DC
:10127000C0F30800704700BFFEE700002DE9F04111
:1012800005462C4620211148FFF7B5F8002619E045
:10129000274607F08007802F04D180210B48FFF7F5
:1012A000ACF803E080210948FFF7A5F86006040EBA
:1012B00020210648FFF7A1F820210448FFF79BF8FA
:1012C000701CC6B2082EE3DBBDE8F08100080140C7
:1012D00010B50446FFF796F87820FFF7CFFFFFF729
:1012E000B5F80020FFF7CAFFFFF7B0F82046FFF778
:1012F000C5FFFFF7ABF8FFF799F810BD10B504462E
:10130000FFF780F87820FFF7B9FFFFF79FF840203C
:10131000FFF7B4FFFFF79AF82046FFF7AFFFFFF79C
:1013200095F8FFF783F810BD00BF704710B56FF058
:101330000400FFF735FC0A4800680A49B0FBF1F0E9
:10134000094908700846007800EB4001C1EBC01065
:101350004FF6FF7101EAC0000449088010BD00008B
:101360000000002000127A00280000202A0000203F
:101370000146114A12884A434FF0E0235A61002285
:101380009A611A46126942F001021A6100BF4FF0D9
:10139000E022106900F001021AB100F48032002A44
:1013A000F5D04FF0E022126922F001024FF0E02365
:1013B0001A6100229A6170472A00002008B50024B3
:1013C0004FF4A060FFF708F9FFF7B0FFFFF718FB35
:1013D000472144F61F60FFF743FCFFF743F8FFF790
:1013E00025F9FFF703F957E0FFF700F90020FFF7B1
:1013F0004DF80446002C4FD0012C06D0022C1BD0F7
:10140000032C30D0042C46D13AE014200323009062
:101410002248194602680020FFF7F8F91420032338
:1014200000901F48052102680020FFF7EFF940F205
:10143000DC50FFF79DFF2EE040F24C411948FFF7CA
:1014400034FD40F2DC50FFF793FF40F2DC50FFF731
:101450008FFF4FF4AF611348FFF729FD40F2DC50D6
:10146000FFF786FF17E010200323EC2200210090F5
:101470000846FFF7CBF940F2DC50FFF779FF0AE0AE
:10148000142309A200210846FFF704FA40F2DC50B9
:10149000FFF76EFF00BF00BFA6E70000340000208A
:1014A0003800002000040040574B55505F50524513
:1014B0005300000010B50246012000E050430B1E0F
:1014C000A1F10104E1B2F9D110BD0000000000005B
:1014D0000000002F000000000700070000147F1428
:1014E0007F1400242A7F2A12006264081323003626
:1014F0004955225000000503000000001C22410055
:10150000000041221C000014083E08140008083E98
:101510000808000000A06000000808080808000093
:1015200060600000002010080402003E5149453E62
:101530000000427F40000042615149460021414580
:101540004B31001814127F10002745454539003CE7
:101550004A494930000171090503003649494936B5
:1015600000064949291E00003636000000005636A4
:101570000000000814224100001414141414000088
:101580004122140800020151090600324959513E16
:10159000007C1211127C007F49494936003E4141CE
:1015A0004122007F4141221C007F49494941007F7F
:1015B00009090901003E4149497A007F0808087F6E
:1015C0000000417F4100002040413F01007F08149E
:1015D0002241007F40404040007F020C027F007F9C
:1015E0000408107F003E4141413E007F0909090681
:1015F000003E4151215E007F0919294600464949B4
:1016000049310001017F0101003F4040403F001F80
:101610002040201F003F4038403F006314081463FF
:1016200000070870080700615149454300007F41E9
:10163000410000552A552A55000041417F00000411
:10164000020102040040404040400000010204004A
:10165000002054545478007F4844443800384444AF
:10166000442000384444487F00385454541800083B
:101670007E0901020018A4A4A47C007F0804047859
:101680000000447D4000004080847D00007F1028E1
:1016900044000000417F4000007C04180478007C76
:1016A0000804047800384444443800FC24242418F6
:1016B0000018242418FC007C080404080048545432
:1016C000542000043F444020003C4040207C001C4B
:1016D0002040201C003C4030403C0044281028445E
:1016E000001CA0A0A07C004464544C4414141414A6
:1016F00014140000000000000000000000000000C2
:101700000000000000F8000000000000003330007E
:10171000000000100C06100C060000000000000085
:10172000000040C07840C0784000043F04043F04FB
:101730000400007088FC08300000001820FF211E03
:101740000000F008F000E018000000211C031E213A
:101750001E0000F00888700000001E2123241927B5
:10176000211010160E000000000000000000000014
:101770000000000000E0180402000000000718202C
:10178000400000020418E00000000040201807009C
:101790000000404080F0804040000202010F010242
:1017A0000200000000F0000000000101011F010123
:1017B0000100000000000000000080B07000000088
:1017C0000000000000000000000000010101010114
:1017D00001010000000000000000003030000000A7
:1017E000000000000000806018040060180601007E
:1017F000000000E010080810E000000F102020108A
:101800000F00001010F8000000000020203F2020F2
:101810000000007008080888700000302824222189
:10182000300000300888884830000018202020113F
:101830000E000000C02010F8000000070424243F20
:10184000240000F8088888080800001921202011C9
:101850000E0000E0108888180000000F11202011F1
:101860000E0000380808C83808000000003F0000DB
:1018700000000070880808887000001C22212122C6
:101880001C0000E010080810E000000031222211C6
:101890000F00000000C0C000000000000030300059
:1018A00000000000008000000000000080600000D8
:1018B0000000000080402010080000010204081011
:1018C0002000404040404040400004040404040420
:1018D00004000008102040800000002010080402CE
:1018E0000100007048080808F000000000303601D0
:1018F0000000C030C828E810E0000718272423148F
:101900000B000000C038E0000000203C230202274A
:10191000382008F8888888700000203F2020201197
:101920000E00C030080808083800071820202010D2
:10193000080008F808080810E000203F20202010C8
:101940000F0008F88888E8081000203F2020232096
:10195000180008F88888E8081000203F20000300DD
:101960000000C03008080838000007182020221E98
:10197000020008F808000008F808203F21010121B2
:101980003F20000808F8080800000020203F202021
:10199000000000000808F8080800C08080807F0070
:1019A000000008F888C028180800203F20012638C9
:1019B000200008F8080000000000203F2020202020
:1019C000300008F8F800F8F80800203F003F003F1A
:1019D000200008F830C00008F808203F2000071851
:1019E0003F00E01008080810E0000F102020201031
:1019F0000F0008F808080808F000203F2101010145
:101A00000000E01008080810E0000F1824243850E7
:101A10004F0008F8888888887000203F2000030C59
:101A20003020007088080808380000382021212262
:101A30001C00180808F8080818000000203F2000C3
:101A4000000008F808000008F808001F20202020E7
:101A50001F000878880000C83808000007380E0109
:101A60000000F80800F80008F800033C0700073CF5
:101A70000300081868808068180820302C03032CA5
:101A800030200838C800C83808000000203F200077
:101A9000000010080808C838080020382621202037
:101AA0001800000000FE020202000000007F40401B
:101AB0004000000C30C000000000000000010638AB
:101AC000C00000020202FE000000004040407F0013
:101AD00000000000040202020400000000000000F8
:101AE00000000000000000000000808080808080F6
:101AF00080800002020400000000000000000000DE
:101B00000000000080808080000000192422222232
:101B10003F2008F8008080000000003F11202011C5
:101B20000E000000008080800000000E11202020A8
:101B30001100000000808088F800000E11202010A5
:101B40003F200000808080800000001F222222228F
:101B50001300008080F0888888180020203F202013
:101B600000000000808080808000006B949494933B
:101B7000600008F8008080800000203F21000020E5
:101B80003F2000809898000000000020203F202087
:101B90000000000000809898000000C08080807FD6
:101BA000000008F8000080808000203F24022D30D3
:101BB0002000000808F8000000000020203F20203E
:101BC00000008080808080808000203F20003F20B7
:101BD000003F8080008080800000203F21000020A6
:101BE0003F200000808080800000001F20202020F7
:101BF0001F00808000808000000080FFA120201155
:101C00000E000000008080808000000E112020A0C7
:101C1000FF80808080008080800020203F21200085
:101C20000100000080808080800000332424242470
:101C30001900008080E0808000000000001F20204C
:101C400000008080000000808000001F2020201005
:101C50003F20808080000080808000010E300806D8
:101C6000010080800080008080800F300C030C30E9
:101C70000F0000808000808080000020312E0E3117
:101C80002000808080000080808080818E70180617
:101C9000010000808080808080000021302C222183
:101CA000300000000000807C020200000000003FC5
:101CB000404000000000FF00000000000000FF00A6
:101CC00000000002027C800000000040403F000055
:101CD00000000006010102020404000000000000F0
:101CE00000000000041D0008000000206400000047
:101CF00028010008681D0008640000204C0700004F
:101D00004401000800A24A04000000000000000096
:101D10000102030406070809000000000102030491
:101D20000102030406070809020406080000000077
:101D300000000000000000000000000000000000A3
:101D40000000000000000000000000000000000093
:101D50000000000000000000000000000000000083
:081D600000000000000000017A
:040000050800018965
:00000001FF
